:100000000C942A000C943F000C943F000C943F0089
:100010000C943F000C943F000C943F000C943F0064
:100020000C943F000C943F000C943F000C943F0054
:100030000C943F000C943F000C943F000C943F0044
:100040000C943F000C943F000C943F000C943F0034
:100050000C943F0011241FBECFE5D8E0DEBFCDBF1A
:1000600010E0A0E6B0E0EEE3F3E002C005900D92F0
:10007000AA36B107D9F70E9498010C949D010C94FF
:1000800000004130B1F5813099F0813030F082309C
:10009000D1F0833009F067C021C02AB381E090E03D
:1000A00002C0880F991F6A95E2F7282B2ABB089592
:1000B00027B381E090E002C0880F991F6A95E2F7AC
:1000C000282B27BB089524B381E090E002C0880F5D
:1000D000991F6A95E2F7282B24BB089521B381E08C
:1000E00090E002C0880F991F6A95E2F7282B21BB88
:1000F00008954423C1F5813099F0813028F0823091
:10010000D9F0833081F524C02AB381E090E002C0A9
:10011000880F991F6A95E2F7809582238ABB08951C
:1001200027B381E090E002C0880F991F6A95E2F73B
:100130008095822387BB089524B381E090E002C0BC
:10014000880F991F6A95E2F78095822384BB0895F2
:1001500021B381E090E002C0880F991F6A95E2F711
:100160008095822381BB08954130B1F5813099F0AB
:10017000813030F08230D1F0833009F067C021C087
:100180002BB381E090E002C0880F991F6A95E2F7D7
:10019000282B2BBB089528B381E090E002C0880F84
:1001A000991F6A95E2F7282B28BB089525B381E0B3
:1001B00090E002C0880F991F6A95E2F7282B25BBB3
:1001C000089522B381E090E002C0880F991F6A95DC
:1001D000E2F7282B22BB08954423C1F5813099F022
:1001E000813028F08230D9F0833081F524C02BB3E0
:1001F00081E090E002C0880F991F6A95E2F7809530
:1002000082238BBB089528B381E090E002C0880F61
:10021000991F6A95E2F78095822388BB089525B3DC
:1002200081E090E002C0880F991F6A95E2F78095FF
:10023000822385BB089522B381E090E002C0880F3D
:10024000991F6A95E2F78095822382BB08950895ED
:100250000895813049F0813028F0823039F08330C0
:1002600041F406C06BBB089568BB089565BB089553
:1002700062BB0895813049F0813028F0823039F036
:10028000833041F406C06ABB089567BB089564BB20
:10029000089561BB0895AF92BF92CF92DF92EF9223
:1002A000FF920F931F93CF93DF93E82EF62E6FEFFD
:1002B0000E943A018F2D6FEF0E943A0110E0C0E0DA
:1002C000D0E000E091E0A92EB12C88ECC82ED12C12
:1002D00003C0802F102F082FFE01E05AFF4F8E2DF4
:1002E00060810E9429018F2D612F0E942901C93050
:1002F000D10554F4C5010C2E02C0880F991F0A9431
:10030000E2F7012F082B04C08F2D60E00E94290125
:1003100080E197E2F6013197F1F70197D9F721963D
:10032000CA30D105B4F200E0C0E0D0E080E0D2CF26
:0E03300082E063E00E944B010895F894FFCF35
:0A033E003F065B4F666D7D077F6F81
:00000001FF
