:100000000C942A000C943F000C943F000C943F0089
:100010000C943F000C943F000C943F000C943F0064
:100020000C943F000C943F000C943F000C943F0054
:100030000C943F000C943F000C943F000C943F0044
:100040000C943F000C943F000C943F000C943F0034
:100050000C943F0011241FBECFE5D8E0DEBFCDBF1A
:1000600010E0A0E6B0E0ECE4F3E002C005900D92F1
:10007000AA36B107D9F70E94A1010C94A4010C94EF
:100080000000CF92DF92EF92FF920F931F93CF93D6
:10009000DF9382E06FEF0E94900183E06FEF0E9498
:1000A000900110E0C0E0D0E000E091E0C92ED12C3A
:1000B00088ECE82EF12C03C0802F102F082FFE01B2
:1000C000E05AFF4F82E060810E947F0183E0612F50
:1000D0000E947F01C930D10554F4C6010C2E02C024
:1000E000880F991F0A94E2F7012F082B04C083E0C0
:1000F00060E00E947F0180E197E2F7013197F1F71C
:100100000197D9F72196CA30D105B4F200E0C0E0DA
:10011000D0E080E0D2CF1F93182F82E061E00E94F0
:10012000900182E0612F0E947F011F91089541306C
:10013000B1F5813099F0813030F08230D1F08330E8
:1001400009F067C021C02AB381E090E002C0880FA7
:10015000991F6A95E2F7282B2ABB089527B381E0FF
:1001600090E002C0880F991F6A95E2F7282B27BB01
:10017000089524B381E090E002C0880F991F6A952A
:10018000E2F7282B24BB089521B381E090E002C060
:10019000880F991F6A95E2F7282B21BB0895442305
:1001A000C1F5813099F0813028F08230D9F0833068
:1001B00081F524C02AB381E090E002C0880F991F26
:1001C0006A95E2F7809582238ABB089527B381E080
:1001D00090E002C0880F991F6A95E2F7809582230C
:1001E00087BB089524B381E090E002C0880F991F77
:1001F0006A95E2F78095822384BB089521B381E05C
:1002000090E002C0880F991F6A95E2F780958223DB
:1002100081BB08954130B1F5813099F0813030F0E3
:100220008230D1F0833009F067C021C02BB381E068
:1002300090E002C0880F991F6A95E2F7282B2BBB2C
:10024000089528B381E090E002C0880F991F6A9555
:10025000E2F7282B28BB089525B381E090E002C087
:10026000880F991F6A95E2F7282B25BB089522B3C2
:1002700081E090E002C0880F991F6A95E2F7282B71
:1002800022BB08954423C1F5813099F0813028F0D4
:100290008230D9F0833081F524C02BB381E090E027
:1002A00002C0880F991F6A95E2F7809582238BBB65
:1002B000089528B381E090E002C0880F991F6A95E5
:1002C000E2F78095822388BB089525B381E090E012
:1002D00002C0880F991F6A95E2F78095822385BB3B
:1002E000089522B381E090E002C0880F991F6A95BB
:1002F000E2F78095822382BB0895089508958130A6
:1003000049F0813028F0823039F0833041F406C062
:100310006BBB089568BB089565BB089562BB0895E3
:10032000813049F0813028F0823039F0833041F457
:1003300006C06ABB089567BB089564BB089561BB9E
:0C03400008950E944100FFCFF894FFCF09
:0A034C003F065B4F666D7D077F6F73
:00000001FF
